:020000040000fa
:080000000002040000000000f2
:020000040000fa
:04000800fe020000f4
:020000040000fa
:04000c00fe020000f0
:020000040000fa
:04001000fe020000ec
:020000040000fa
:04001400fe020000e8
:020000040000fa
:04001800fe020000e4
:020000040000fa
:04001c00fe020000e0
:020000040000fa
:04002000fe020000dc
:020000040000fa
:04002400fe020000d8
:020000040000fa
:04002800fe020000d4
:020000040000fa
:04002c00fe020000d0
:020000040000fa
:04003000fe020000cc
:020000040000fa
:040034006e03000057
:020000040000fa
:04003800fe020000c4
:020000040000fa
:04003c00fe020000c0
:020000040000fa
:04004000fe020000bc
:020000040000fa
:04004400fe020000b8
:020000040000fa
:04004800fe020000b4
:020000040000fa
:04004c00fe020000b0
:020000040000fa
:04005000fe020000ac
:020000040000fa
:04005400fe020000a8
:020000040000fa
:04005800fe020000a4
:020000040000fa
:04005c00fe020000a0
:020000040000fa
:04006000fe0200009c
:020000040000fa
:04006400fe02000098
:020000040000fa
:04006800fe02000094
:020000040000fa
:04006c00fe02000090
:020000040000fa
:04007000fe0200008c
:020000040000fa
:04007400fe02000088
:020000040000fa
:04007800fe02000084
:020000040000fa
:04007c00fe02000080
:020000040000fa
:04008000fe0200007c
:020000040000fa
:04008400fe02000078
:020000040000fa
:04008800fe02000074
:020000040000fa
:04008c00fe02000070
:020000040000fa
:04009000fe0200006c
:020000040000fa
:04009400fe02000068
:020000040000fa
:04009800fe02000064
:020000040000fa
:04009c00fe02000060
:020000040000fa
:0400a000fe0200005c
:020000040000fa
:0400a400fe02000058
:020000040000fa
:0400a800fe02000054
:020000040000fa
:0400ac00fe02000050
:020000040000fa
:0400b000fe0200004c
:020000040000fa
:0400b400fe02000048
:020000040000fa
:0400b800fe02000044
:020000040000fa
:0400bc00fe02000040
:020000040000fa
:0400c000fe0200003c
:020000040000fa
:0400c400fe02000038
:020000040000fa
:0400c800fe02000034
:020000040000fa
:0400cc00fe02000030
:020000040000fa
:0400d000fe0200002c
:020000040000fa
:0400d400fe02000028
:020000040000fa
:0400d800fe02000024
:020000040000fa
:0400dc00fe02000020
:020000040000fa
:0400e000fe0200001c
:020000040000fa
:0400e400fe02000018
:020000040000fa
:0400e800fe02000014
:020000040000fa
:0400ec00fe02000010
:020000040000fa
:0400f000fe0200000c
:020000040000fa
:0400f400fe02000008
:020000040000fa
:0400f800fe02000004
:020000040000fa
:0400fc00fe02000000
:020000040000fa
:04010000fe020000fb
:020000040000fa
:04010400fe020000f7
:020000040000fa
:04010800fe020000f3
:020000040000fa
:04010c00fe020000ef
:020000040000fa
:04011000fe020000eb
:020000040000fa
:04011400fe020000e7
:020000040000fa
:04011800fe020000e3
:020000040000fa
:04011c00fe020000df
:020000040000fa
:04012000fe020000db
:020000040000fa
:04012400fe020000d7
:020000040000fa
:04012800fe020000d3
:020000040000fa
:04012c00fe020000cf
:020000040000fa
:04013000fe020000cb
:020000040000fa
:04013400fe020000c7
:020000040000fa
:04013800fe020000c3
:020000040000fa
:04013c00fe020000bf
:020000040000fa
:04014000fe020000bb
:020000040000fa
:04014400fe020000b7
:020000040000fa
:04014800fe020000b3
:020000040000fa
:04014c00fe020000af
:020000040000fa
:04015000fe020000ab
:020000040000fa
:04015400fe020000a7
:020000040000fa
:04015800fe020000a3
:020000040000fa
:04015c00fe0200009f
:020000040000fa
:04016000fe0200009b
:020000040000fa
:04016400fe02000097
:020000040000fa
:04016800fe02000093
:020000040000fa
:04016c00fe0200008f
:020000040000fa
:04017000fe0200008b
:020000040000fa
:04017400fe02000087
:020000040000fa
:04017800fe02000083
:020000040000fa
:04017c00fe0200007f
:020000040000fa
:04018000fe0200007b
:020000040000fa
:04018400fe02000077
:020000040000fa
:04018800fe02000073
:020000040000fa
:04018c00fe0200006f
:020000040000fa
:04019000fe0200006b
:020000040000fa
:04019400fe02000067
:020000040000fa
:04019800fe02000063
:020000040000fa
:04019c00fe0200005f
:020000040000fa
:0401a000fe0200005b
:020000040000fa
:0401a400fe02000057
:020000040000fa
:0401a800fe02000053
:020000040000fa
:0401ac00fe0200004f
:020000040000fa
:0401b000fe0200004b
:020000040000fa
:0401b400fe02000047
:020000040000fa
:0401b800fe02000043
:020000040000fa
:0401bc00fe0200003f
:020000040000fa
:0401c000fe0200003b
:020000040000fa
:0401c400fe02000037
:020000040000fa
:0401c800fe02000033
:020000040000fa
:0401cc00fe0200002f
:020000040000fa
:0401d000fe0200002b
:020000040000fa
:0401d400fe02000027
:020000040000fa
:0401d800fe02000023
:020000040000fa
:0401dc00fe0200001f
:020000040000fa
:0401e000fe0200001b
:020000040000fa
:0401e400fe02000017
:020000040000fa
:0401e800fe02000013
:020000040000fa
:0401ec00fe0200000f
:020000040000fa
:0401f000fe0200000b
:020000040000fa
:0401f400fe02000007
:020000040000fa
:0401f800fe02000003
:020000040000fa
:0401fc00fe020000ff
:020000040000fa
:04020000fe020000fa
:020000040000fa
:04020400fe020000f6
:020000040000fa
:04020800fe020000f2
:020000040000fa
:04020c00fe020000ee
:020000040000fa
:04021000fe020000ea
:020000040000fa
:04021400fe020000e6
:020000040000fa
:04021800fe020000e2
:020000040000fa
:04021c00fe020000de
:020000040000fa
:04022000fe020000da
:020000040000fa
:04022400fe020000d6
:020000040000fa
:04022800fe020000d2
:020000040000fa
:04022c00fe020000ce
:020000040000fa
:04023000fe020000ca
:020000040000fa
:04023400fe020000c6
:020000040000fa
:04023800fe020000c2
:020000040000fa
:04023c00fe020000be
:020000040000fa
:04024000fe020000ba
:020000040000fa
:04024400fe020000b6
:020000040000fa
:04024800fe020000b2
:020000040000fa
:04024c00fe020000ae
:020000040000fa
:04025000fe020000aa
:020000040000fa
:04025400fe020000a6
:020000040000fa
:04025800fe020000a2
:020000040000fa
:04025c00fe0200009e
:020000040000fa
:04026000fe0200009a
:020000040000fa
:04026400fe02000096
:020000040000fa
:04026800fe02000092
:020000040000fa
:04026c00fe0200008e
:020000040000fa
:04027000fe0200008a
:020000040000fa
:04027400fe02000086
:020000040000fa
:04027800fe02000082
:020000040000fa
:04027c00fe0200007e
:020000040000fa
:04028000fe0200007a
:020000040000fa
:04028400fe02000076
:020000040000fa
:04028800fe02000072
:020000040000fa
:04028c00fe0200006e
:020000040000fa
:04029000fe0200006a
:020000040000fa
:04029400fe02000066
:020000040000fa
:04029800fe02000062
:020000040000fa
:04029c00fe0200005e
:020000040000fa
:0402a000fe0200005a
:020000040000fa
:0402a400fe02000056
:020000040000fa
:0402a800fe02000052
:020000040000fa
:0402ac00fe0200004e
:020000040000fa
:0402b000fe0200004a
:020000040000fa
:0402b400fe02000046
:020000040000fa
:0402b800fe02000042
:020000040000fa
:0402bc00fe0200003e
:020000040000fa
:0402c000fe0200003a
:020000040000fa
:0402c400fe02000036
:020000040000fa
:0402c800fe02000032
:020000040000fa
:0402cc00fe0200002e
:020000040000fa
:0402d000fe0200002a
:020000040000fa
:0402d400fe02000026
:020000040000fa
:0402d800fe02000022
:020000040000fa
:0402dc00fe0200001e
:020000040000fa
:0402e000fe0200001a
:020000040000fa
:0402e400fe02000016
:020000040000fa
:0402e800fe02000012
:020000040000fa
:0402ec00fe0200000e
:020000040000fa
:0402f000fe0200000a
:020000040000fa
:0402f400fe02000006
:020000040000fa
:0402f800fe02000002
:020000040000fa
:0402fc00fe020000fe
:020000040000fa
:04030000fe020000f9
:020000040000fa
:04030400fe020000f5
:020000040000fa
:04030800fe020000f1
:020000040000fa
:04030c00fe020000ed
:020000040000fa
:04031000fe020000e9
:020000040000fa
:100400004f0021000eff24000e01880000000000b4
:10041000000020000000e000020032000001200087
:100420002002880014000700760007000000e000aa
:1004300003003a00004620000100200002003700bf
:100440000000200001002000810f70000100320038
:100450000f000700000020000000e0000200320052
:100460000000020000000000040302000000000081
:100470000040da000000fe00200020000000e00044
:1004800002003200100020009001880000000600e9
:10049000a1028800800478000000eb001f003700f4
:1004a000e284440054a0b4009905ba00e2844400f8
:1004b00054a0b4009906ba00e284440054a0b400e9
:1004c0000006eb00476fde00fd07b200ae018800ba
:1004d000636ce10003003a000ad801000000eb0061
:1004e0000e003700606ce10008003a00004deb00a0
:1004f0000a05e800020039003420ec000af0a000f0
:100500008b05e900f9ff3e00040037006168e10057
:10051000010032000086eb000b00070019c7ba008b
:100520001905ba000e04e00003003a000a00e000da
:10053000dbff3a0000000600fe07b200ae028800b2
:100540008a047800f5ff37000cd0a300e20f4d00bd
:100550001c00390089027800354dba000a05e80010
:10056000020039003420ec000af0a0008b05e900fd
:100570000f003200254dba000a05e80002003900dc
:100580003420ec000af0a0008b05e90008003200de
:100590000c00e0000600320015cdba000a05e800a4
:1005a000020039003420ec000af0a0008b05e900bd
:1005b0008984e80054a0b4000b00e000e2ff3a0098
:1005c000000006009902ba00055d78008b05e9007d
:1005d000f7ff3200c82ade00055d78008b05e900d0
:1005e000f3ff32000c00e000f1ff320019ddba0029
:1005f000eeff3700d2030400000000000040da00e4
:080600000000fe0000000500ef
:020000040000fa
:100608000000fa0073000700a70007000e2eef0095
:10061800222eef00002eef00142eef00022eef0026
:10062800162eef00220ea800140ea8000e0ea80029
:10063800000ea8002023ef002143a8001119800014
:10064800f0ff21000080600010198800f0002000f1
:100658002019880050002000401988002623ef0048
:100668002e23ef003023ef004119800000fc2f00fb
:10067800008060000010a0004019880028e3a9004d
:1006880021e3a800213d20004001200001000100d5
:100698000421ef0021088000000320000100700001
:1006a800200888000021ef00c009200010088800f9
:1006b80001428000f0ff28000080600000c0a00018
:1006c800004288000068a9002068a80005e1a80089
:1006d800ffff37003600f800809fbe00829fbe00f3
:1006e800849fbe00869fbe000000fa000080800044
:1006f8000000e800008088000180800010808000f1
:10070800808f50001d0034000030ef00b070800072
:100718004700de006140600000c0ea006140600000
:100728000080fb00610060004700dd00b1708000c0
:100738000170a10001007000b07088002023a8009b
:10074800213d2000a0002000010001002023a90075
:100758000000000000198000610060000000e00057
:10076800fcff3200011880005000200000017800d2
:10077800110009008280d800108088000068a90054
:100788000080fa004f03be004f02be004f01be00ba
:100798004f00be003600f900004006000200fa00d3
:1007a800000f78000030ef0005003700270009002f
:1007b80000000000008080000000e8000080880041
:1007c800008080009e0f5000f8ff39000080fa007a
:1007d800000006000000fa00020007000080fa008e
:1007e800000006000000fa002b000700213a8000f4
:1007f80000fe2f0000806000203a8800213a800027
:10080800f0f32f0000806000203a8800313a800021
:1008180000e02f008080600090022000010070003e
:10082800303a880010002000020007000080fa001b
:10083800000006000200fa00000f78001e01780090
:1008480080072000a1092000337420008049780027
:10085800814978008249780042c7bf000004a0009f
:100868000081fb0060042000710520002374200033
:1008780080497800814978008249780000000000aa
:10088800103a8000610060000000e000fcff3a00c0
:100898000080fa00000006000000fa00c3e8a90082
:1008a8000080fa00000006000000fa00c3e8a80073
:0808b8000080fa0000000600b8
:020000040000fa
:1008c0000010000002000000800000000210000084
:1008d0000200000082000000e803000000000000a9
:020000040000fa
:020000040005f5
:04570000ffff0000a7
:020000040000fa
:020000040005f5
:04572000ffff000087
:020000040000fa
:020000040005f5
:04573000f9ff00007d
:020000040000fa
:020000040005f5
:045738007bfe0000f4
:020000040000fa
:020000040005f5
:0457400089ff0000dd
:020000040000fa
:020000040005f5
:04574800ffff00005f
:020000040000fa
:020000040005f5
:04575000fdff000059
:020000040000fa
:020000040005f5
:04575800ffff00004f
:020000040000fa
:020000040005f5
:04576000ffff000047
:020000040000fa
:020000040005f5
:04576800ffff00003f
:020000040000fa
:020000040005f5
:04577000ffff000037
:020000040000fa
:020000040005f5
:04577800feff000030
:020000040000fa
:020000040005f5
:04578000feff000028
:020000040000fa
:020000040005f5
:04578800ffff00001f
:00000001FF
