:020000040000fa
:080000000002040000000000f2
:020000040000fa
:0400080002030000ef
:020000040000fa
:04000c0002030000eb
:020000040000fa
:0400100002030000e7
:020000040000fa
:0400140002030000e3
:020000040000fa
:0400180002030000df
:020000040000fa
:04001c0002030000db
:020000040000fa
:0400200002030000d7
:020000040000fa
:0400240002030000d3
:020000040000fa
:0400280002030000cf
:020000040000fa
:04002c0002030000cb
:020000040000fa
:0400300002030000c7
:020000040000fa
:0400340002030000c3
:020000040000fa
:0400380002030000bf
:020000040000fa
:04003c0002030000bb
:020000040000fa
:0400400002030000b7
:020000040000fa
:0400440002030000b3
:020000040000fa
:0400480002030000af
:020000040000fa
:04004c0002030000ab
:020000040000fa
:0400500002030000a7
:020000040000fa
:0400540002030000a3
:020000040000fa
:04005800020300009f
:020000040000fa
:04005c00020300009b
:020000040000fa
:040060000203000097
:020000040000fa
:040064000203000093
:020000040000fa
:04006800020300008f
:020000040000fa
:04006c00020300008b
:020000040000fa
:040070000203000087
:020000040000fa
:040074000203000083
:020000040000fa
:04007800020300007f
:020000040000fa
:04007c00020300007b
:020000040000fa
:040080000203000077
:020000040000fa
:040084000203000073
:020000040000fa
:04008800020300006f
:020000040000fa
:04008c00020300006b
:020000040000fa
:040090000203000067
:020000040000fa
:040094000203000063
:020000040000fa
:04009800020300005f
:020000040000fa
:04009c00020300005b
:020000040000fa
:0400a0000203000057
:020000040000fa
:0400a4000203000053
:020000040000fa
:0400a800020300004f
:020000040000fa
:0400ac00020300004b
:020000040000fa
:0400b0000203000047
:020000040000fa
:0400b4000203000043
:020000040000fa
:0400b800020300003f
:020000040000fa
:0400bc00020300003b
:020000040000fa
:0400c0000203000037
:020000040000fa
:0400c4000203000033
:020000040000fa
:0400c800020300002f
:020000040000fa
:0400cc00020300002b
:020000040000fa
:0400d0000203000027
:020000040000fa
:0400d4000203000023
:020000040000fa
:0400d800020300001f
:020000040000fa
:0400dc00020300001b
:020000040000fa
:0400e0000203000017
:020000040000fa
:0400e4000203000013
:020000040000fa
:0400e800020300000f
:020000040000fa
:0400ec00020300000b
:020000040000fa
:0400f0000203000007
:020000040000fa
:0400f4000203000003
:020000040000fa
:0400f80002030000ff
:020000040000fa
:0400fc0002030000fb
:020000040000fa
:0401000002030000f6
:020000040000fa
:0401040002030000f2
:020000040000fa
:0401080002030000ee
:020000040000fa
:04010c0002030000ea
:020000040000fa
:0401100002030000e6
:020000040000fa
:0401140002030000e2
:020000040000fa
:0401180002030000de
:020000040000fa
:04011c0002030000da
:020000040000fa
:0401200002030000d6
:020000040000fa
:0401240002030000d2
:020000040000fa
:0401280002030000ce
:020000040000fa
:04012c0002030000ca
:020000040000fa
:0401300002030000c6
:020000040000fa
:0401340002030000c2
:020000040000fa
:0401380002030000be
:020000040000fa
:04013c0002030000ba
:020000040000fa
:0401400002030000b6
:020000040000fa
:0401440002030000b2
:020000040000fa
:0401480002030000ae
:020000040000fa
:04014c0002030000aa
:020000040000fa
:0401500002030000a6
:020000040000fa
:0401540002030000a2
:020000040000fa
:04015800020300009e
:020000040000fa
:04015c00020300009a
:020000040000fa
:040160000203000096
:020000040000fa
:040164000203000092
:020000040000fa
:04016800020300008e
:020000040000fa
:04016c00020300008a
:020000040000fa
:040170000203000086
:020000040000fa
:040174000203000082
:020000040000fa
:04017800020300007e
:020000040000fa
:04017c00020300007a
:020000040000fa
:040180000203000076
:020000040000fa
:040184000203000072
:020000040000fa
:04018800020300006e
:020000040000fa
:04018c00020300006a
:020000040000fa
:040190000203000066
:020000040000fa
:040194000203000062
:020000040000fa
:04019800020300005e
:020000040000fa
:04019c00020300005a
:020000040000fa
:0401a0000203000056
:020000040000fa
:0401a4000203000052
:020000040000fa
:0401a800020300004e
:020000040000fa
:0401ac00020300004a
:020000040000fa
:0401b0000203000046
:020000040000fa
:0401b4000203000042
:020000040000fa
:0401b800020300003e
:020000040000fa
:0401bc00020300003a
:020000040000fa
:0401c0000203000036
:020000040000fa
:0401c4000203000032
:020000040000fa
:0401c800020300002e
:020000040000fa
:0401cc00020300002a
:020000040000fa
:0401d0000203000026
:020000040000fa
:0401d4000203000022
:020000040000fa
:0401d800020300001e
:020000040000fa
:0401dc00020300001a
:020000040000fa
:0401e0000203000016
:020000040000fa
:0401e4000203000012
:020000040000fa
:0401e800020300000e
:020000040000fa
:0401ec00020300000a
:020000040000fa
:0401f0000203000006
:020000040000fa
:0401f4000203000002
:020000040000fa
:0401f80002030000fe
:020000040000fa
:0401fc0002030000fa
:020000040000fa
:0402000002030000f5
:020000040000fa
:0402040002030000f1
:020000040000fa
:0402080002030000ed
:020000040000fa
:04020c0002030000e9
:020000040000fa
:0402100002030000e5
:020000040000fa
:0402140002030000e1
:020000040000fa
:0402180002030000dd
:020000040000fa
:04021c0002030000d9
:020000040000fa
:0402200002030000d5
:020000040000fa
:0402240002030000d1
:020000040000fa
:0402280002030000cd
:020000040000fa
:04022c0002030000c9
:020000040000fa
:0402300002030000c5
:020000040000fa
:0402340002030000c1
:020000040000fa
:0402380002030000bd
:020000040000fa
:04023c0002030000b9
:020000040000fa
:0402400002030000b5
:020000040000fa
:0402440002030000b1
:020000040000fa
:0402480002030000ad
:020000040000fa
:04024c0002030000a9
:020000040000fa
:0402500002030000a5
:020000040000fa
:0402540002030000a1
:020000040000fa
:04025800020300009d
:020000040000fa
:04025c000203000099
:020000040000fa
:040260000203000095
:020000040000fa
:040264000203000091
:020000040000fa
:04026800020300008d
:020000040000fa
:04026c000203000089
:020000040000fa
:040270000203000085
:020000040000fa
:040274000203000081
:020000040000fa
:04027800020300007d
:020000040000fa
:04027c000203000079
:020000040000fa
:040280000203000075
:020000040000fa
:040284000203000071
:020000040000fa
:04028800020300006d
:020000040000fa
:04028c000203000069
:020000040000fa
:040290000203000065
:020000040000fa
:040294000203000061
:020000040000fa
:04029800020300005d
:020000040000fa
:04029c000203000059
:020000040000fa
:0402a0000203000055
:020000040000fa
:0402a4000203000051
:020000040000fa
:0402a800020300004d
:020000040000fa
:0402ac000203000049
:020000040000fa
:0402b0000203000045
:020000040000fa
:0402b4000203000041
:020000040000fa
:0402b800020300003d
:020000040000fa
:0402bc000203000039
:020000040000fa
:0402c0000203000035
:020000040000fa
:0402c4000203000031
:020000040000fa
:0402c800020300002d
:020000040000fa
:0402cc000203000029
:020000040000fa
:0402d0000203000025
:020000040000fa
:0402d4000203000021
:020000040000fa
:0402d800020300001d
:020000040000fa
:0402dc000203000019
:020000040000fa
:0402e0000203000015
:020000040000fa
:0402e4000203000011
:020000040000fa
:0402e800020300000d
:020000040000fa
:0402ec000203000009
:020000040000fa
:0402f0000203000005
:020000040000fa
:0402f4000203000001
:020000040000fa
:0402f80002030000fd
:020000040000fa
:0402fc0002030000f9
:020000040000fa
:0403000002030000f4
:020000040000fa
:0403040002030000f0
:020000040000fa
:0403080002030000ec
:020000040000fa
:04030c0002030000e8
:020000040000fa
:0403100002030000e4
:020000040000fa
:100400006f0921000eff24000e018800000000008b
:10041000000020000000e000020032000001200087
:100420002002880014000700d80007000000e00048
:1004300003003a00a08f20000100200002003700d6
:100440000000200001002000810f70000100320038
:100450000f000700000020000000e0000200320052
:100460000000020000000000600802000000000020
:100470000040da000000fe00000120000000e00063
:1004800002003200002020009001880000000600d9
:10049000a1028800800478000000eb001f003700f4
:1004a000e284440054a0b4009905ba00e2844400f8
:1004b00054a0b4009906ba00e284440054a0b400e9
:1004c0000006eb00476fde00fd07b200ae018800ba
:1004d000636ce10003003a000ad801000000eb0061
:1004e0000e003700606ce10008003a00004deb00a0
:1004f0000a05e800020039003420ec000af0a000f0
:100500008b05e900f9ff3e00040037006168e10057
:10051000010032000086eb000b00070019c7ba008b
:100520001905ba000e04e00003003a000a00e000da
:10053000dbff3a0000000600fe07b200ae028800b2
:100540008a047800f5ff37000cd0a300e20f4d00bd
:100550001c00390089027800354dba000a05e80010
:10056000020039003420ec000af0a0008b05e900fd
:100570000f003200254dba000a05e80002003900dc
:100580003420ec000af0a0008b05e90008003200de
:100590000c00e0000600320015cdba000a05e800a4
:1005a000020039003420ec000af0a0008b05e900bd
:1005b0008984e80054a0b4000b00e000e2ff3a0098
:1005c000000006009902ba00055d78008b05e9007d
:1005d000f7ff3200c82ade00055d78008b05e900d0
:1005e000f3ff32000c00e000f1ff320019ddba0029
:1005f000eeff370036060400000000000000040093
:10060000000000000040da000000fe000a00fa00ce
:1006100011002000b1bf9f00c0bf9f006a8057003b
:10062000990207004fb897000080fa00000006000a
:100630000a00fa00e20f50001f003e009084800084
:10064000e10f5000060032008023200045232000e7
:1006500023232000042320000000e00004003a00cf
:100660008022200045222000232220000422200096
:10067000060028009403630002003a00070878008f
:10068000140a730013a8a30001003a0013a0a000ed
:1006900002007800050037001388a300feff320037
:1006a0003102fb00840a78000000e9000000e0004d
:1006b000f9ff3a000800370033002000b3bf9f0065
:1006c000c0bf9f00d1bf9f00e2bf9f006a8057005c
:1006d0006f0207006fb99700020078000080fa00ef
:1006e000000006000a00fa0051002000b1bf9f0080
:1006f000c0bf9f006a805700670207005fb897007d
:100700000080fa0000000600889fbe008004780088
:10071000a08480000000e00004003a000e00070002
:100720000084eb000000e00008003500a884800091
:100730000900e0000500320009004400060007003f
:100740000000e00001003d000084eb00080078009c
:100750004f04be0000000600800078000100e000a9
:1007600003003a0000002000a0848800000005007b
:100770000080eb0002002000828f500002003e004b
:10078000a18488000000eb000000060000000500c6
:10079000810221002f000700800078000080eb001c
:1007a0000100e0000400350081022100a0002000cb
:1007b000020007004f80de0000000600889fbe0098
:1007c0008a1f78000004be00c900900069009000f4
:1007d000808f500005003900090078008e00070066
:1007e0008080eb000000e00016003500084578002e
:1007f0004900900008587800c0049800190078005b
:1008000000b8a30004003a0000a8a30007003200cb
:10081000ea4f540005003a00090078001e01070065
:100820008080eb000000e00006003a0000c02000dd
:10083000190060000200320049009000e0049800b6
:100840008a80fb00010078004f0578004f04be004d
:1008500000000600889fbe008a9fbe008c1f7800a3
:1008600080047800010478002f003700c800900051
:1008700068009000808f5000040039000800780064
:10088000650007000000e0003a003500004020004d
:10089000180060000a003200a10020000900780062
:1008a00050000700000678000c00e0000400320051
:1008b000618514000a054600cfd5de00040037002c
:1008c000090078003e0007000005be000006eb00ae
:1008d000480090006801900000015100cf91de00b7
:1008e0008a0f51008b8f5900020031000205be00b3
:1008f0000006eb000a01be00890078002200070014
:10090000480090000a004000400498000c00e000fd
:100910000400320008007800df0007000000e0005b
:1009200014003a008a8444001904e000cfff3a0022
:1009300000802000180060000600320008007800e7
:10094000d5000700800078000080eb000100e00087
:1009500009003a0001c02000988060000000eb0010
:100960000500320048009000600498000000eb0091
:10097000010037000080eb004f0678004f05be00f5
:100980004f04be00000006000202be008001eb0022
:1009900007003700611bb8000601400006834000d5
:1009a0001649780061025200e0825a008301e80093
:1009b000e00f5200e08f5a00f6ff3a0000000600f8
:1009c000800078000000eb00008140000000e8009b
:1009d0001204e000fcff3a0001005100cf80de006d
:1009e000000006006011b8006103b8000603410072
:1009f000e0834b0016427800814f520001003a001c
:100a0000860178000201e8000404e000f6ff3a00e5
:100a10000300780000000600889fbe008a1f78004f
:100a200000047800c8009000680190000000eb000e
:100a3000828f50003d003900180078002200290004
:100a400002016000e20f5100070032000120240083
:100a50000000e00001003d0001202000008c70003b
:100a60000080eb0031003700020026000200600029
:100a7000820f500009003a0038009000808f50002b
:100a80000600390008007800830007008000780025
:100a90000080eb000100e00024003a001805780017
:100aa00000c020000000650019003a00a804900072
:100ab0006002200008004000808f540014003a00bb
:100ac00000202000010020002c01070020049800d5
:100ad0000000e00005003a0029049800490498004d
:100ae0008904e80039049800080037000a60a00073
:100af0000a0c78004004980001202000808040000b
:100b000031049800400c9800500c98000c0007002d
:100b1000280090005004980038009000600498006d
:100b200000002600180c70000000eb004f05780054
:100b30004f04be00000006006063200091003700f3
:100b4000881f7800080921001804e00003003a001b
:100b5000f9ff070020c0b300004c78004f04780074
:100b600000000600889fbe0000047800080078009e
:100b7000490007008004780000042000180060008d
:100b800002003200280090008b0007000000eb00fc
:100b900020049800384090000004e0000500350073
:100ba0000000fb0099fe07000000e0000100320099
:100bb0008084eb00181090000000e0000800320074
:100bc000c8fe07000000e000010032008084eb0056
:100bd00018109000780007000000eb001014980037
:100be00000082000180060000f003200610721009b
:100bf0000000eb00d10f140005003a000000400097
:100c000081072100008040000008eb00030037004e
:100c10000000e800e80f5000f6ff3a0008007800f6
:100c2000650007000e003700000c780000c0eb00e4
:100c30003044980060022000080040002004980022
:100c40004004980050049800400c980060049800fc
:100c5000500c98007004980076004400000c980036
:100c6000090078004f04be0000000600889fbe0007
:100c700088082100f0045400480078000000e000db
:100c800001003200b7ff0700890f5400faff3a0055
:100c90004f04be0000000600889fbe008a1f780037
:100ca000000478000800e0000d003a006807210009
:100cb000700544008004eb00580078000000e0005c
:100cc00004003200f4ff07000000e00001003d00d6
:100cd0008084eb008a0f5400f7ff3a0025003700ac
:100ce00000002200180060008004eb0021003200a8
:100cf000a80490000f00370009015100384090000f
:100d00000000fb008900780049fe07000000e000b9
:100d100007003c0028009000400498006004980000
:100d2000500c98001890a0008084eb001100370050
:100d30008084440048019000828f5400eeff390007
:100d400028009000400498009800780002c020001d
:100d50000281600001003a003800900001e8a30021
:100d6000020032006004980001003700500c980027
:100d70008004eb00090078004f0578004f04be00a6
:100d800000000600010020000100e0000900320020
:100d9000010080000100e000060032008100e9004f
:100da0000100880081804000020080008100410035
:100db00080087800000006000000e00032003200e9
:100dc0004002be00e50f5200e08f5a002e003600b0
:100dd0000408a3002c003a00718480000100e000a8
:100de00002003200810f5000040031002100980001
:100df000708488001700370082007800210190007d
:100e00000200e00002003200800f5100faff3900ba
:100e10001103be0086814000830f50001a00390084
:100e2000808f510004003a008418430085904b00e5
:100e300001007800070037000200e00003003200e4
:100e400004024000840f51000f0039002200980076
:100e5000a0009800a00090000100e0000a0032000d
:100e600010014000828f500007003a00c2082100a4
:100e70000009eb001001be0031184100219049002b
:100e8000a10090002100980000000600889fbe008d
:100e90008a9fbe000004be00618480000100e00063
:100ea00002003200010078000f00370071848000da
:100eb000e008210005003700b10f5400a18f5c004d
:100ec0002b00360064804000a10090000100e0008b
:100ed000f9ff3a0012003700b20f5400a28f5c00f5
:100ee0002300360064004100100178000200e00099
:100ef000f9ff3a001101780071848000e0082100b8
:100f000005003700b10f5400a18f5c0018003600b7
:100f100064804000a1009000828f5000f9ff3a00e9
:100f20004a8480005b848000880f5500898f5d00b3
:100f3000010031000805be000a00be00460007009f
:100f40000000e00006003a00880f5500898f5d0020
:100f5000060032008b05d1000a85d300f2ff37006e
:100f60000a98be0094ff0700cbff37000000eb009b
:100f70004f05be004f04be0000000600889fbe0063
:100f80000002be0065004000e080480000037800d9
:100f90000600a10081017800060178000204be006d
:100fa0008000eb00840f5400858f5c002700360022
:100fb000e50f5400e08f5c0002003e006800200056
:100fc000090020000800be00b0ff07008000eb0011
:100fd0000000e0001d00320090007800a4ff2f0008
:100fe000f5ff2f0031014200a1814a00880f510016
:100ff000898f590003003100a10290000508780094
:10100000080037000881400002087800a101900024
:1010100023019800100178003119140021911c005f
:101020008888be00100178000000eb000200e0009c
:1010300004003200a20190000300e0000100320031
:101040006400410060848800e48040000100780072
:101050004f04be00000006000001be008000eb004f
:101060000200e0000600340002007800a6fd070040
:1010700080007800e18f400001003a008000eb0022
:10108000010078000000060000c0da000000060041
:1010900000c0da000000060000c0da000000060010
:020000040000fa
:1010a000486500006c6c00006f200000576f000066
:1010b000726c000064210000200d000000000000a0
:020000040000fa
:1010c0000000fa008f000700c600070015eea90017
:1010d0008133800000fc2f00008060000000a00031
:1010e0008033880030c1b300c4e6b7002002a900f5
:1010f0000111800090ff2f00008060000011880027
:1011000020a2a9002062a900301020004011880010
:1011100023a2a90023e2a9002188a90021e2a800b6
:101120002342a8006910090000000000101180008f
:10113000640060000000e000010032000900370098
:1011400010118000620060000000e0000200320028
:101150002222a90003003700008528008cfd07002b
:10116000f2ff3700f1ff37000600fa001007980081
:10117000210798000000eb00000f78000000eb0052
:10118000000f78000d0037000000000011118000f2
:1011900000202000008060000000e000fbff3a001b
:1011a0001e0078009e0090000080400010407800f3
:1011b0000000fb00201188001e0fe8002e009000a8
:1011c0009e007800808f5000efff35000000000087
:1011d0001111800000202000008060000000e0006d
:1011e000fbff3a00a0002000201188000080fa00d8
:0411f00000000600f5
:020000040000fa
:1011f40000100000880000008200000001000000d0
:1012040000261000271026001026100026102600a5
:101214001016100000000000000000000000000094
:1012240000000000000000000000000000000000ba
:101234000002080001014e00104f10004e104e0035
:10124400104e10004e103e00100000000000000080
:10125400000000000000000000000000000000008a
:10126400000000000000020008020200761077006f
:1012740010761000761076001076100066100000cc
:10128400000000000000000000000000000000005a
:101294000000000000000000000000000010280012
:1012a40010501000000000000000000000000000ca
:1012b4000000000090100000020000008000000008
:1012c40088100000040000008200000006000000f6
:1012d400000000008c1000000400000080000000ea
:1012e40092100000020000008200000001000000d3
:1012f40094100000020000008000000000000000c4
:020000040000fa
:101304000000fa00222eef00107180007070880037
:10131400020007000080fa00000006000000fa0046
:101324002b000700213a800000fe2f00008060009f
:10133400203a8800213a8000f0f32f0000806000fa
:10134400203a8800313a800000e02f00808060005d
:101354009002200001007000303a88001000200044
:10136400020007000080fa00000006000200fa00f4
:10137400000f78001e01780080072000a1092000da
:1013840033742000804978008149780082497800cc
:1013940042c7bf000004a0000081fb0060042000dd
:1013a4007105200023742000804978008149780069
:1013b4008249780000000000103a8000610060005b
:1013c4000000e000fcff3a000080fa000000060084
:1013d4000000fa00c3e8a9000080fa00000006003b
:1013e4000000fa00c3e8a8000080fa00000006002c
:020000040000fa
:020000040005f5
:04570000ffff0000a7
:020000040000fa
:020000040005f5
:04572000ffff000087
:020000040000fa
:020000040005f5
:04573000f9ff00007d
:020000040000fa
:020000040005f5
:045738007bfe0000f4
:020000040000fa
:020000040005f5
:0457400089ff0000dd
:020000040000fa
:020000040005f5
:04574800ffff00005f
:020000040000fa
:020000040005f5
:04575000fdff000059
:020000040000fa
:020000040005f5
:04575800ffff00004f
:020000040000fa
:020000040005f5
:04576000ffff000047
:020000040000fa
:020000040005f5
:04576800ffff00003f
:020000040000fa
:020000040005f5
:04577000ffff000037
:020000040000fa
:020000040005f5
:04577800feff000030
:020000040000fa
:020000040005f5
:04578000feff000028
:020000040000fa
:020000040005f5
:04578800ffff00001f
:00000001FF
